:100000000C9466000C948E000C948E000C948E0060
:100010000C948E000C948E000C948E000C948E0028
:100020000C948E000C948E000C948E000C94FA01AB
:100030000C948E000C948E000C948E000C948E0008
:100040000C94B0010C948E000C948E000C948E00D5
:100050000C948E000C948E000C948E000C948E00E8
:100060000C948E000C948E00000102030405111202
:10007000131415160A0B0C0D0E0F000000080002D9
:100080000100000304070000000000000000000061
:100090000000250028002B0000000000240027009D
:1000A0002A000404040404040404020202020202FA
:1000B000030303030303010204081020408001022C
:1000C00004081020010204081020470511241FBE57
:1000D000CFEFD8E0DEBFCDBF11E0A0E0B1E0E0E1BE
:1000E000FCE002C005900D92A030B107D9F721E0E5
:1000F000A0E0B1E001C01D92A534B207E1F710E025
:10010000C6E6D0E004C02197FE010E940006C53675
:10011000D107C9F70E94BB020C9406060C9400009C
:1001200090E0FC01EA54FF4F2491FC01EE55FF4F93
:100130008491882399F090E0880F991FFC01E8567C
:10014000FF4FA591B491FC01E257FF4F8591949127
:100150008FB7F894EC91E22BEC938FBF089590E069
:10016000FC01E658FF4F2491FC01EA54FF4F349103
:10017000FC01EE55FF4FE491EE2309F43CC022232D
:1001800039F1233091F038F42130A9F0223001F513
:1001900084B58F7D12C0273091F02830A1F0243033
:1001A000B9F4809180008F7D03C0809180008F77AB
:1001B000809380000DC084B58F7784BD09C0809185
:1001C000B0008F7703C08091B0008F7D8093B00026
:1001D000F0E0EE0FFF1FE257FF4FA591B4919FB7DC
:1001E000F894611104C08C913095382302C0EC91D1
:1001F0003E2B3C939FBF08959CB59F7D9CBD9CB5B5
:10020000937F9CBD9CB59C7F9CBD9DB59E7F9DBDF5
:10021000682F809136010C94AF003FB7F89480911D
:10022000310190913201A0913301B091340126B592
:10023000A89B05C02F3F19F00196A11DB11D3FBF1E
:10024000BA2FA92F982F8827820F911DA11DB11DAC
:10025000BC01CD0142E0660F771F881F991F4A95A8
:10026000D1F708958EBD00000DB407FEFDCF8EB509
:100270000895CF93C82F80E090E00E94FC008C2F5F
:100280008F710E9432018FEF0E943201C82F81E0EE
:1002900090E00E94FC008C2FCF910895CF9380E0D6
:1002A00090E00E94FC0081EE0E943201C82F81E0A4
:1002B00090E00E94FC008C2FCF910895CF9380E0B6
:1002C00090E00E94FC0082EE0E943201C82F81E083
:1002D00090E00E94FC008C2FCF910895EF92FF9246
:1002E0000F931F93CF93DF93182F7B01C42F80E0D0
:1002F00090E00E94FC00812F8F7180620E94320189
:10030000D82F8701CC2339F0F80181918F010E9409
:100310003201C150F7CF81E090E00E94FC008D2FA8
:10032000DF91CF911F910F91FF90EF900895CF93A0
:10033000DF93C82FD62F80E090E00E94FC008C2F26
:100340008F7180620E943201C82F8D2F0E9432016E
:1003500081E090E00E94FC008C2FDF91CF91089506
:100360001F920F920FB60F9211242F933F938F93EA
:100370009F93AF93BF9380912D0190912E01A091F7
:100380002F01B091300130912C0123E0230F2D3744
:1003900020F40196A11DB11D05C026E8230F029689
:1003A000A11DB11D20932C0180932D0190932E014E
:1003B000A0932F01B09330018091310190913201CF
:1003C000A0913301B09134010196A11DB11D80931C
:1003D000310190933201A0933301B0933401BF9166
:1003E000AF919F918F913F912F910F900FBE0F90E2
:1003F0001F9018951F920F920FB60F9211242F93F2
:100400003F934F935F936F937F938F939F93AF939C
:10041000BF93EF93FF938091010187FF05C0109276
:100420008500109284001BC020910101022E000C57
:10043000330B8091000190E02817390784F48091F4
:100440000101082E000C990BFC01EE0FFF1F8E0F0F
:100450009F1FFC01ED5FFE4F808186FD15C08091DE
:1004600001018F5F8093010120910101022E000C98
:10047000330B8091000190E028173907C4F4809174
:1004800001018C3064F113C080910101082E000C31
:10049000990BFC01EE0FFF1F8E0F9F1FFC01ED5FFC
:1004A000FE4F808160E08F730E94AF00D8CF8091B3
:1004B000840090918500049680349C4918F480E46F
:1004C0009CE905C0809184009091850004969093EA
:1004D0008900809388008FEF809301013BC02091B9
:1004E00084003091850080910101082E000C990B49
:1004F000FC01EE0FFF1F8E0F9F1FFC01ED5FFE4FF3
:1005000081819281820F931F90938900809388004C
:1005100080910101082E000C990BFC01EE0FFF1FCA
:100520008E0F9F1FFC01ED5FFE4F808186FF12C082
:1005300080910101082E000C990BFC01EE0FFF1FAA
:100540008E0F9F1FFC01ED5FFE4F808161E08F7376
:100550000E94AF00FF91EF91BF91AF919F918F915A
:100560007F916F915F914F913F912F910F900FBEAF
:100570000F901F901895CF93DF93CDB7DEB72897D4
:100580000FB6F894DEBF0FBECDBF789484B58260FD
:1005900084BD84B5816084BD85B5826085BD85B527
:1005A000816085BD80916E00816080936E001092A5
:1005B0008100809181008260809381008091810020
:1005C00081608093810080918000816080938000B1
:1005D0008091B10084608093B1008091B00081600F
:1005E0008093B00080917A00846080937A0080913B
:1005F0007A00826080937A0080917A008160809393
:100600007A0080917A00806880937A001092C1000D
:10061000809127018C3008F050C083E00E94900048
:1006200080912701E82FF0E09F01220F331FE20F96
:10063000F31FED5FFE4F9081907C9360908310924A
:100640002801109229016CE00E94E8052CE0829FAD
:10065000B001112440E050E09B01240F351FF90147
:10066000EE0FFF1F2E0F3F1FF901ED5FFE4F908130
:1006700096FD16C04F5F5F4F4C30510569F78111F1
:100680000FC01092800082E080938100109285005C
:1006900010928400B19A80916F00826080936F0005
:1006A000E0912701F0E0CF01880F991FE80FF91FB3
:1006B000ED5FFE4F808180648083809135010E94D0
:1006C0009000809136010E9490001FB7F8948091AD
:1006D0000201811124C0ECEAF0E08491E0ECF0E04A
:1006E0009491E82FF0E0EE0FFF1FE856FF4FA59121
:1006F000B491EC91E92321F461E08AE00E94AF001B
:100700008AE00E9490008CB580618CBD8CB58064BD
:100710008CBD8DE00E9490008BE00E949000809143
:1007200002018F5F809302011FBF60E0809135015D
:100730000E94AF0081E090E00E94FC000E940D0149
:100740006B017C0155E0452E512C612C712C0E94CF
:100750000D01DC01CB018C199D09AE09BF09883E52
:100760009340A105B10598F341E0441A510861088E
:10077000710858EEC50E53E0D51EE11CF11C411462
:1007800051046104710419F76FE484E00E94970139
:1007900086E00E943901682F666086E00E9497011A
:1007A00086E00E94390110923701877D182F106270
:1007B000612F86E00E94970186E00E943901181798
:1007C00009F461C11092370186E00E94390110924C
:1007D0003701182F177D612F86E00E94970186E070
:1007E0000E94390118131092370180E00E943901EC
:1007F000682F6C6080E00E94970160E08CE10E94AD
:10080000970160E787E00E9497016CE485E00E9411
:1008100097010E945E010E944E0181EE898380EF64
:100820008A838B8388EE8C838D831E821F82188639
:10083000E5E7F0E0849145E0BE016F5F7F4F0E94E5
:100840006E01EFE6F0E08491609139010E9497011A
:1008500082E00E943901E9E6F0E0E49161E070E0B5
:1008600001C0660FEA95EAF7682B82E00E949701C3
:1008700080E00E943901682F636080E00E94970148
:1008800060E787E00E94970120913D0130913E0191
:1008900040913F01509140016091410170914201AE
:1008A0008091430190914401A0E00E94F40531F051
:1008B00045E06DE371E08AE00E946E010E945E01F6
:1008C0000E944E0161E0809135010E94AF0083E0FB
:1008D00092E00197F1F798E8E92EF12C28E5C22E75
:1008E00022E0D22E34EB432E512C612C712C40E0AF
:1008F000242E40E0342E80E090E00E94FC008FEF38
:100900000E943201182F81E090E00E94FC0016FF47
:10091000B3C060E487E00E94970115FF1DC060E24C
:1009200087E00E94970118C081E090E00E94FC00DF
:1009300087E10E943901182F1170E0912A01F0918E
:100940002B01E03242E0F40744F1309127013C30C2
:1009500008F460C0111190C010913901012F1111DC
:1009600001E080913B01811102C0101B01C010E029
:1009700080E090E00E94FC0081E60E9432010023AA
:1009800029F08FEF0E94320180932A01112361F236
:100990008FEF0E9432011150F9CFF7FD06C0E53B01
:1009A000F1052CF0E4EBF0E002C0E0E0F0E0809133
:1009B0002801D701A81BB10987FDB395AA0FBB1F5A
:1009C000AA0FBB1F4D01BB0FAA08BB0880912901CC
:1009D000B601681B710987FD7395660F771F660F57
:1009E000771FCB01770FAA0BBB0B9C01AD01281918
:1009F00039094A095B09DF010E94AF05A301920191
:100A00000E948505DA01C901880D991DAA1DBB1D2B
:100A1000FC019BCF80912801A701481B510987FD4C
:100A20005395CA01880F991F880F991FE817F90776
:100A300084F080912901B601681B710987FD7395C7
:100A4000660F771F660F771FCF016E177F070CF4B5
:100A5000CB010297880F991F4FB7F894232F30E0EE
:100A6000F901EE0FFF1F2E0F3F1FF901ED5FFE4F43
:100A7000928381834FBF6ECF2114310409F43BCFA1
:100A80000E94000038CF81E0809338019DCE809194
:100A900000018C30A0F491E0980F909300018093B6
:100AA000270190E0FC01EE0FFF1F8E0F9F1FFC013E
:100AB000ED5FFE4F88EB9BE09283818303C08FEF55
:100AC0008093270188E08093350187E08093360189
:100AD00081E0809337011092380180E280933901E0
:100AE00010923A0110923B0110923D0110923E018A
:100AF00010923F0110924001109241011092420168
:100B000010924301109244010895052E97FB1EF4A4
:100B100000940E949C0557FD07D00E94B70507FC72
:100B200003D04EF40C949C0550954095309521953A
:100B30003F4F4F4F5F4F0895909580957095619509
:100B40007F4F8F4F9F4F08950E94D905A59F900D0D
:100B5000B49F900DA49F800D911D11240895B7FF9F
:100B60000C94A4050E94A405821B930B0895A1E296
:100B70001A2EAA1BBB1BFD010DC0AA1FBB1FEE1F17
:100B8000FF1FA217B307E407F50720F0A21BB30B62
:100B9000E40BF50B661F771F881F991F1A9469F7DE
:100BA00060957095809590959B01AC01BD01CF013A
:100BB0000895A29FB001B39FC001A39F700D811D36
:100BC0001124911DB29F700D811D1124911D089556
:100BD000991B79E004C0991F961708F0961B881F8F
:100BE0007A95C9F7809508950024A7FD00942A17E7
:100BF0003005400550056005700580059005089595
:100C0000EE0FFF1F0590F491E02D0994F894FFCFAB
:107E0000112484B714BE81FFF0D085E080938100F7
:107E100082E08093C00088E18093C10086E0809377
:107E2000C20080E18093C4008EE0C9D0259A86E02C
:107E300020E33CEF91E0309385002093840096BBD3
:107E4000B09BFECF1D9AA8958150A9F7CC24DD24C4
:107E500088248394B5E0AB2EA1E19A2EF3E0BF2EE7
:107E6000A2D0813461F49FD0082FAFD0023811F036
:107E7000013811F484E001C083E08DD089C08234E0
:107E800011F484E103C0853419F485E0A6D080C0E4
:107E9000853579F488D0E82EFF2485D0082F10E0AE
:107EA000102F00270E291F29000F111F8ED06801E7
:107EB0006FC0863521F484E090D080E0DECF843638
:107EC00009F040C070D06FD0082F6DD080E0C81688
:107ED00080E7D80618F4F601B7BEE895C0E0D1E017
:107EE00062D089930C17E1F7F0E0CF16F0E7DF06D8
:107EF00018F0F601B7BEE89568D007B600FCFDCFD4
:107F0000A601A0E0B1E02C9130E011968C91119780
:107F100090E0982F8827822B932B1296FA010C0160
:107F200087BEE89511244E5F5F4FF1E0A038BF0790
:107F300051F7F601A7BEE89507B600FCFDCF97BE46
:107F4000E89526C08437B1F42ED02DD0F82E2BD052
:107F50003CD0F601EF2C8F010F5F1F4F84911BD097
:107F6000EA94F801C1F70894C11CD11CFA94CF0C13
:107F7000D11C0EC0853739F428D08EE10CD085E9AC
:107F80000AD08FE07ACF813511F488E018D01DD067
:107F900080E101D065CF982F8091C00085FFFCCF94
:107FA0009093C60008958091C00087FFFCCF809118
:107FB000C00084FD01C0A8958091C6000895E0E648
:107FC000F0E098E1908380830895EDDF803219F02E
:107FD00088E0F5DFFFCF84E1DECF1F93182FE3DFCA
:107FE0001150E9F7F2DF1F91089580E0E8DFEE27F6
:047FF000FF270994CA
:027FFE00040479
:0400000300007E007B
:00000001FF
